{
  "contractName": "SupplyChain",
  "abi": [
    {
      "inputs": [],
      "payable": false,
      "stateMutability": "nonpayable",
      "type": "constructor"
    },
    {
      "anonymous": false,
      "inputs": [
        {
          "indexed": true,
          "internalType": "uint256",
          "name": "id",
          "type": "uint256"
        },
        {
          "indexed": false,
          "internalType": "string",
          "name": "name",
          "type": "string"
        }
      ],
      "name": "MedicineAdded",
      "type": "event"
    },
    {
      "anonymous": false,
      "inputs": [
        {
          "indexed": true,
          "internalType": "uint256",
          "name": "id",
          "type": "uint256"
        }
      ],
      "name": "OrderAdded",
      "type": "event"
    },
    {
      "anonymous": false,
      "inputs": [
        {
          "indexed": true,
          "internalType": "address",
          "name": "oldOwner",
          "type": "address"
        },
        {
          "indexed": true,
          "internalType": "address",
          "name": "newOwner",
          "type": "address"
        }
      ],
      "name": "OwnershipTransferred",
      "type": "event"
    },
    {
      "anonymous": false,
      "inputs": [
        {
          "indexed": false,
          "internalType": "uint256",
          "name": "id",
          "type": "uint256"
        },
        {
          "indexed": false,
          "internalType": "string",
          "name": "name",
          "type": "string"
        },
        {
          "indexed": false,
          "internalType": "bool",
          "name": "isPrecursor",
          "type": "bool"
        }
      ],
      "name": "RawMaterialAdded",
      "type": "event"
    },
    {
      "anonymous": false,
      "inputs": [
        {
          "indexed": true,
          "internalType": "address",
          "name": "supplier",
          "type": "address"
        },
        {
          "indexed": false,
          "internalType": "uint256",
          "name": "rawMaterialID",
          "type": "uint256"
        }
      ],
      "name": "RawMaterialSupplied",
      "type": "event"
    },
    {
      "anonymous": false,
      "inputs": [
        {
          "indexed": true,
          "internalType": "address",
          "name": "oldRegulator",
          "type": "address"
        },
        {
          "indexed": true,
          "internalType": "address",
          "name": "newRegulator",
          "type": "address"
        }
      ],
      "name": "RegulatorChanged",
      "type": "event"
    },
    {
      "anonymous": false,
      "inputs": [
        {
          "indexed": true,
          "internalType": "uint256",
          "name": "orderId",
          "type": "uint256"
        },
        {
          "indexed": false,
          "internalType": "enum SupplyChain.STAGE",
          "name": "stage",
          "type": "uint8"
        }
      ],
      "name": "StageUpdated",
      "type": "event"
    },
    {
      "anonymous": false,
      "inputs": [
        {
          "indexed": true,
          "internalType": "uint256",
          "name": "orderId",
          "type": "uint256"
        },
        {
          "indexed": false,
          "internalType": "enum SupplyChain.STAGE",
          "name": "stage",
          "type": "uint8"
        },
        {
          "indexed": false,
          "internalType": "uint256",
          "name": "timestamp",
          "type": "uint256"
        }
      ],
      "name": "StageUpdatedWithTimestamp",
      "type": "event"
    },
    {
      "anonymous": false,
      "inputs": [
        {
          "indexed": false,
          "internalType": "address",
          "name": "urnSupplier",
          "type": "address"
        }
      ],
      "name": "URNSupplierRegistered",
      "type": "event"
    },
    {
      "constant": true,
      "inputs": [
        {
          "internalType": "uint256",
          "name": "",
          "type": "uint256"
        }
      ],
      "name": "CUST",
      "outputs": [
        {
          "internalType": "address",
          "name": "addr",
          "type": "address"
        },
        {
          "internalType": "uint256",
          "name": "id",
          "type": "uint256"
        },
        {
          "internalType": "string",
          "name": "name",
          "type": "string"
        },
        {
          "internalType": "string",
          "name": "email",
          "type": "string"
        }
      ],
      "payable": false,
      "stateMutability": "view",
      "type": "function"
    },
    {
      "constant": true,
      "inputs": [
        {
          "internalType": "uint256",
          "name": "",
          "type": "uint256"
        }
      ],
      "name": "DIS",
      "outputs": [
        {
          "internalType": "address",
          "name": "addr",
          "type": "address"
        },
        {
          "internalType": "uint256",
          "name": "id",
          "type": "uint256"
        },
        {
          "internalType": "string",
          "name": "name",
          "type": "string"
        },
        {
          "internalType": "string",
          "name": "place",
          "type": "string"
        },
        {
          "internalType": "bool",
          "name": "urnVerified",
          "type": "bool"
        }
      ],
      "payable": false,
      "stateMutability": "view",
      "type": "function"
    },
    {
      "constant": true,
      "inputs": [
        {
          "internalType": "uint256",
          "name": "",
          "type": "uint256"
        }
      ],
      "name": "MAN",
      "outputs": [
        {
          "internalType": "address",
          "name": "addr",
          "type": "address"
        },
        {
          "internalType": "uint256",
          "name": "id",
          "type": "uint256"
        },
        {
          "internalType": "string",
          "name": "name",
          "type": "string"
        },
        {
          "internalType": "string",
          "name": "place",
          "type": "string"
        },
        {
          "internalType": "bool",
          "name": "urnVerified",
          "type": "bool"
        }
      ],
      "payable": false,
      "stateMutability": "view",
      "type": "function"
    },
    {
      "constant": true,
      "inputs": [],
      "name": "Owner",
      "outputs": [
        {
          "internalType": "address",
          "name": "",
          "type": "address"
        }
      ],
      "payable": false,
      "stateMutability": "view",
      "type": "function"
    },
    {
      "constant": true,
      "inputs": [
        {
          "internalType": "uint256",
          "name": "",
          "type": "uint256"
        }
      ],
      "name": "RET",
      "outputs": [
        {
          "internalType": "address",
          "name": "addr",
          "type": "address"
        },
        {
          "internalType": "uint256",
          "name": "id",
          "type": "uint256"
        },
        {
          "internalType": "string",
          "name": "name",
          "type": "string"
        },
        {
          "internalType": "string",
          "name": "place",
          "type": "string"
        },
        {
          "internalType": "bool",
          "name": "urnVerified",
          "type": "bool"
        }
      ],
      "payable": false,
      "stateMutability": "view",
      "type": "function"
    },
    {
      "constant": true,
      "inputs": [
        {
          "internalType": "uint256",
          "name": "",
          "type": "uint256"
        }
      ],
      "name": "RMS",
      "outputs": [
        {
          "internalType": "address",
          "name": "addr",
          "type": "address"
        },
        {
          "internalType": "uint256",
          "name": "id",
          "type": "uint256"
        },
        {
          "internalType": "string",
          "name": "name",
          "type": "string"
        },
        {
          "internalType": "string",
          "name": "place",
          "type": "string"
        },
        {
          "internalType": "bool",
          "name": "urnVerified",
          "type": "bool"
        }
      ],
      "payable": false,
      "stateMutability": "view",
      "type": "function"
    },
    {
      "constant": true,
      "inputs": [],
      "name": "custCtr",
      "outputs": [
        {
          "internalType": "uint256",
          "name": "",
          "type": "uint256"
        }
      ],
      "payable": false,
      "stateMutability": "view",
      "type": "function"
    },
    {
      "constant": true,
      "inputs": [],
      "name": "disCtr",
      "outputs": [
        {
          "internalType": "uint256",
          "name": "",
          "type": "uint256"
        }
      ],
      "payable": false,
      "stateMutability": "view",
      "type": "function"
    },
    {
      "constant": true,
      "inputs": [],
      "name": "manCtr",
      "outputs": [
        {
          "internalType": "uint256",
          "name": "",
          "type": "uint256"
        }
      ],
      "payable": false,
      "stateMutability": "view",
      "type": "function"
    },
    {
      "constant": true,
      "inputs": [],
      "name": "medicineCtr",
      "outputs": [
        {
          "internalType": "uint256",
          "name": "",
          "type": "uint256"
        }
      ],
      "payable": false,
      "stateMutability": "view",
      "type": "function"
    },
    {
      "constant": true,
      "inputs": [
        {
          "internalType": "uint256",
          "name": "",
          "type": "uint256"
        }
      ],
      "name": "medicines",
      "outputs": [
        {
          "internalType": "uint256",
          "name": "id",
          "type": "uint256"
        },
        {
          "internalType": "string",
          "name": "name",
          "type": "string"
        },
        {
          "internalType": "string",
          "name": "description",
          "type": "string"
        },
        {
          "internalType": "bool",
          "name": "isPrecursor",
          "type": "bool"
        }
      ],
      "payable": false,
      "stateMutability": "view",
      "type": "function"
    },
    {
      "constant": true,
      "inputs": [],
      "name": "orderCtr",
      "outputs": [
        {
          "internalType": "uint256",
          "name": "",
          "type": "uint256"
        }
      ],
      "payable": false,
      "stateMutability": "view",
      "type": "function"
    },
    {
      "constant": true,
      "inputs": [
        {
          "internalType": "uint256",
          "name": "",
          "type": "uint256"
        }
      ],
      "name": "orders",
      "outputs": [
        {
          "internalType": "uint256",
          "name": "MedicineId",
          "type": "uint256"
        },
        {
          "internalType": "uint256",
          "name": "orderId",
          "type": "uint256"
        },
        {
          "internalType": "uint256",
          "name": "MANid",
          "type": "uint256"
        },
        {
          "internalType": "uint256",
          "name": "DISid",
          "type": "uint256"
        },
        {
          "internalType": "uint256",
          "name": "RETid",
          "type": "uint256"
        },
        {
          "internalType": "uint256",
          "name": "CUSTid",
          "type": "uint256"
        },
        {
          "internalType": "enum SupplyChain.STAGE",
          "name": "stage",
          "type": "uint8"
        }
      ],
      "payable": false,
      "stateMutability": "view",
      "type": "function"
    },
    {
      "constant": true,
      "inputs": [],
      "name": "rawMaterialCtr",
      "outputs": [
        {
          "internalType": "uint256",
          "name": "",
          "type": "uint256"
        }
      ],
      "payable": false,
      "stateMutability": "view",
      "type": "function"
    },
    {
      "constant": true,
      "inputs": [
        {
          "internalType": "uint256",
          "name": "",
          "type": "uint256"
        }
      ],
      "name": "rawMaterials",
      "outputs": [
        {
          "internalType": "uint256",
          "name": "id",
          "type": "uint256"
        },
        {
          "internalType": "string",
          "name": "name",
          "type": "string"
        },
        {
          "internalType": "bool",
          "name": "isPrecursor",
          "type": "bool"
        }
      ],
      "payable": false,
      "stateMutability": "view",
      "type": "function"
    },
    {
      "constant": true,
      "inputs": [
        {
          "internalType": "uint256",
          "name": "",
          "type": "uint256"
        },
        {
          "internalType": "uint256",
          "name": "",
          "type": "uint256"
        }
      ],
      "name": "rawMaterialsSupplied",
      "outputs": [
        {
          "internalType": "bool",
          "name": "",
          "type": "bool"
        }
      ],
      "payable": false,
      "stateMutability": "view",
      "type": "function"
    },
    {
      "constant": true,
      "inputs": [
        {
          "internalType": "uint256",
          "name": "",
          "type": "uint256"
        },
        {
          "internalType": "uint256",
          "name": "",
          "type": "uint256"
        }
      ],
      "name": "rawMaterialsSupplier",
      "outputs": [
        {
          "internalType": "uint256",
          "name": "",
          "type": "uint256"
        }
      ],
      "payable": false,
      "stateMutability": "view",
      "type": "function"
    },
    {
      "constant": true,
      "inputs": [],
      "name": "regulatorCtr",
      "outputs": [
        {
          "internalType": "uint256",
          "name": "",
          "type": "uint256"
        }
      ],
      "payable": false,
      "stateMutability": "view",
      "type": "function"
    },
    {
      "constant": true,
      "inputs": [
        {
          "internalType": "address",
          "name": "",
          "type": "address"
        }
      ],
      "name": "regulators",
      "outputs": [
        {
          "internalType": "bool",
          "name": "",
          "type": "bool"
        }
      ],
      "payable": false,
      "stateMutability": "view",
      "type": "function"
    },
    {
      "constant": true,
      "inputs": [],
      "name": "retCtr",
      "outputs": [
        {
          "internalType": "uint256",
          "name": "",
          "type": "uint256"
        }
      ],
      "payable": false,
      "stateMutability": "view",
      "type": "function"
    },
    {
      "constant": true,
      "inputs": [],
      "name": "rmsCtr",
      "outputs": [
        {
          "internalType": "uint256",
          "name": "",
          "type": "uint256"
        }
      ],
      "payable": false,
      "stateMutability": "view",
      "type": "function"
    },
    {
      "constant": true,
      "inputs": [
        {
          "internalType": "uint256",
          "name": "",
          "type": "uint256"
        },
        {
          "internalType": "uint8",
          "name": "",
          "type": "uint8"
        }
      ],
      "name": "stageTimestamps",
      "outputs": [
        {
          "internalType": "uint256",
          "name": "",
          "type": "uint256"
        }
      ],
      "payable": false,
      "stateMutability": "view",
      "type": "function"
    },
    {
      "constant": true,
      "inputs": [
        {
          "internalType": "uint256",
          "name": "",
          "type": "uint256"
        }
      ],
      "name": "suppliedMaterialCount",
      "outputs": [
        {
          "internalType": "uint256",
          "name": "",
          "type": "uint256"
        }
      ],
      "payable": false,
      "stateMutability": "view",
      "type": "function"
    },
    {
      "constant": false,
      "inputs": [
        {
          "internalType": "address",
          "name": "_newOwner",
          "type": "address"
        }
      ],
      "name": "transferOwnership",
      "outputs": [],
      "payable": false,
      "stateMutability": "nonpayable",
      "type": "function"
    },
    {
      "constant": false,
      "inputs": [
        {
          "internalType": "address",
          "name": "_newRegulator",
          "type": "address"
        }
      ],
      "name": "setRegulator",
      "outputs": [],
      "payable": false,
      "stateMutability": "nonpayable",
      "type": "function"
    },
    {
      "constant": false,
      "inputs": [
        {
          "internalType": "address",
          "name": "_regulator",
          "type": "address"
        }
      ],
      "name": "addRegulator",
      "outputs": [],
      "payable": false,
      "stateMutability": "nonpayable",
      "type": "function"
    },
    {
      "constant": false,
      "inputs": [
        {
          "internalType": "address",
          "name": "_regulator",
          "type": "address"
        }
      ],
      "name": "removeRegulator",
      "outputs": [],
      "payable": false,
      "stateMutability": "nonpayable",
      "type": "function"
    },
    {
      "constant": false,
      "inputs": [
        {
          "internalType": "string",
          "name": "_name",
          "type": "string"
        },
        {
          "internalType": "string",
          "name": "_email",
          "type": "string"
        }
      ],
      "name": "registerCustomer",
      "outputs": [],
      "payable": false,
      "stateMutability": "nonpayable",
      "type": "function"
    },
    {
      "constant": false,
      "inputs": [
        {
          "internalType": "string",
          "name": "_name",
          "type": "string"
        },
        {
          "internalType": "string",
          "name": "_description",
          "type": "string"
        },
        {
          "internalType": "uint256[]",
          "name": "_rawMaterials",
          "type": "uint256[]"
        },
        {
          "internalType": "bool",
          "name": "_isPrecursor",
          "type": "bool"
        }
      ],
      "name": "addMedicine",
      "outputs": [],
      "payable": false,
      "stateMutability": "nonpayable",
      "type": "function"
    },
    {
      "constant": false,
      "inputs": [
        {
          "internalType": "string",
          "name": "_name",
          "type": "string"
        },
        {
          "internalType": "bool",
          "name": "_isPrecursor",
          "type": "bool"
        }
      ],
      "name": "addRawMaterial",
      "outputs": [],
      "payable": false,
      "stateMutability": "nonpayable",
      "type": "function"
    },
    {
      "constant": false,
      "inputs": [
        {
          "internalType": "address",
          "name": "_address",
          "type": "address"
        },
        {
          "internalType": "string",
          "name": "_name",
          "type": "string"
        },
        {
          "internalType": "string",
          "name": "_place",
          "type": "string"
        },
        {
          "internalType": "bool",
          "name": "_isVerified",
          "type": "bool"
        }
      ],
      "name": "addRMS",
      "outputs": [],
      "payable": false,
      "stateMutability": "nonpayable",
      "type": "function"
    },
    {
      "constant": false,
      "inputs": [
        {
          "internalType": "address",
          "name": "_address",
          "type": "address"
        },
        {
          "internalType": "string",
          "name": "_name",
          "type": "string"
        },
        {
          "internalType": "string",
          "name": "_place",
          "type": "string"
        },
        {
          "internalType": "bool",
          "name": "_isVerified",
          "type": "bool"
        }
      ],
      "name": "addManufacturer",
      "outputs": [],
      "payable": false,
      "stateMutability": "nonpayable",
      "type": "function"
    },
    {
      "constant": false,
      "inputs": [
        {
          "internalType": "address",
          "name": "_address",
          "type": "address"
        },
        {
          "internalType": "string",
          "name": "_name",
          "type": "string"
        },
        {
          "internalType": "string",
          "name": "_place",
          "type": "string"
        },
        {
          "internalType": "bool",
          "name": "_isVerified",
          "type": "bool"
        }
      ],
      "name": "addDistributor",
      "outputs": [],
      "payable": false,
      "stateMutability": "nonpayable",
      "type": "function"
    },
    {
      "constant": false,
      "inputs": [
        {
          "internalType": "address",
          "name": "_address",
          "type": "address"
        },
        {
          "internalType": "string",
          "name": "_name",
          "type": "string"
        },
        {
          "internalType": "string",
          "name": "_place",
          "type": "string"
        },
        {
          "internalType": "bool",
          "name": "_isVerified",
          "type": "bool"
        }
      ],
      "name": "addRetailer",
      "outputs": [],
      "payable": false,
      "stateMutability": "nonpayable",
      "type": "function"
    },
    {
      "constant": false,
      "inputs": [
        {
          "internalType": "address",
          "name": "_address",
          "type": "address"
        },
        {
          "internalType": "string",
          "name": "_name",
          "type": "string"
        },
        {
          "internalType": "string",
          "name": "_email",
          "type": "string"
        }
      ],
      "name": "addCustomer",
      "outputs": [],
      "payable": false,
      "stateMutability": "nonpayable",
      "type": "function"
    },
    {
      "constant": false,
      "inputs": [
        {
          "internalType": "uint256",
          "name": "medicineId",
          "type": "uint256"
        }
      ],
      "name": "addOrder",
      "outputs": [],
      "payable": false,
      "stateMutability": "nonpayable",
      "type": "function"
    },
    {
      "constant": true,
      "inputs": [
        {
          "internalType": "uint256",
          "name": "_orderId",
          "type": "uint256"
        }
      ],
      "name": "showStage",
      "outputs": [
        {
          "internalType": "string",
          "name": "",
          "type": "string"
        }
      ],
      "payable": false,
      "stateMutability": "view",
      "type": "function"
    },
    {
      "constant": true,
      "inputs": [
        {
          "internalType": "uint256",
          "name": "_orderId",
          "type": "uint256"
        },
        {
          "internalType": "enum SupplyChain.STAGE",
          "name": "_stage",
          "type": "uint8"
        }
      ],
      "name": "getStageTimestamp",
      "outputs": [
        {
          "internalType": "uint256",
          "name": "",
          "type": "uint256"
        }
      ],
      "payable": false,
      "stateMutability": "view",
      "type": "function"
    },
    {
      "constant": true,
      "inputs": [
        {
          "internalType": "uint256",
          "name": "_orderId",
          "type": "uint256"
        }
      ],
      "name": "getAllTimestamps",
      "outputs": [
        {
          "internalType": "uint256[6]",
          "name": "",
          "type": "uint256[6]"
        }
      ],
      "payable": false,
      "stateMutability": "view",
      "type": "function"
    },
    {
      "constant": false,
      "inputs": [
        {
          "internalType": "uint256",
          "name": "_orderId",
          "type": "uint256"
        },
        {
          "internalType": "uint256",
          "name": "_rawMaterialID",
          "type": "uint256"
        }
      ],
      "name": "supplyRawMaterials",
      "outputs": [],
      "payable": false,
      "stateMutability": "nonpayable",
      "type": "function"
    },
    {
      "constant": false,
      "inputs": [
        {
          "internalType": "uint256",
          "name": "_orderId",
          "type": "uint256"
        }
      ],
      "name": "manufacture",
      "outputs": [],
      "payable": false,
      "stateMutability": "nonpayable",
      "type": "function"
    },
    {
      "constant": false,
      "inputs": [
        {
          "internalType": "uint256",
          "name": "_orderId",
          "type": "uint256"
        }
      ],
      "name": "distribute",
      "outputs": [],
      "payable": false,
      "stateMutability": "nonpayable",
      "type": "function"
    },
    {
      "constant": false,
      "inputs": [
        {
          "internalType": "uint256",
          "name": "_orderId",
          "type": "uint256"
        }
      ],
      "name": "retail",
      "outputs": [],
      "payable": false,
      "stateMutability": "nonpayable",
      "type": "function"
    },
    {
      "constant": false,
      "inputs": [
        {
          "internalType": "uint256",
          "name": "_orderId",
          "type": "uint256"
        },
        {
          "internalType": "uint256",
          "name": "_customerId",
          "type": "uint256"
        }
      ],
      "name": "sell",
      "outputs": [],
      "payable": false,
      "stateMutability": "nonpayable",
      "type": "function"
    },
    {
      "constant": true,
      "inputs": [
        {
          "internalType": "uint256",
          "name": "medicineId",
          "type": "uint256"
        }
      ],
      "name": "getRequiredRawMaterials",
      "outputs": [
        {
          "internalType": "uint256[]",
          "name": "",
          "type": "uint256[]"
        }
      ],
      "payable": false,
      "stateMutability": "view",
      "type": "function"
    },
    {
      "constant": true,
      "inputs": [
        {
          "internalType": "uint256",
          "name": "orderId",
          "type": "uint256"
        }
      ],
      "name": "getOrderRMS",
      "outputs": [
        {
          "internalType": "uint256[]",
          "name": "",
          "type": "uint256[]"
        }
      ],
      "payable": false,
      "stateMutability": "view",
      "type": "function"
    }
  ],
  "bytecode": "0x6080604052600060025560006003556000600455600060055560006006556000600755600060085560006009556000600a5534801561003d57600080fd5b50336000806101000a81548173ffffffffffffffffffffffffffffffffffffffff021916908373ffffffffffffffffffffffffffffffffffffffff16021790555060018060003373ffffffffffffffffffffffffffffffffffffffff1673ffffffffffffffffffffffffffffffffffffffff16815260200190815260200160002060006101000a81548160ff021916908315150217905550615f2c80620000e56000396000f3fe608060405234801561001057600080fd5b506004361061028a5760003560e01c8063a85c38ef1161015c578063cc403069116100ce578063e6fb580911610087578063e6fb580914611bf6578063eef5cb4014611c60578063effb5c1614611db8578063f2fde38b14611dd6578063f75a561014611e1a578063fce5511c14611e6a5761028a565b8063cc4030691461180b578063cde0a4f814611963578063d79875eb146119a7578063db0f9894146119df578063dd28639814611b31578063e101a2e014611b4f5761028a565b8063b201cca411610120578063b201cca4146113f6578063b4a99a4e14611424578063bbfdefc81461146e578063bcb8b231146114f1578063c3fd7b8b14611663578063c85e766d146116e65761028a565b8063a85c38ef146112ce578063a95f29d914611348578063ac63f3c714611366578063ac9e5b30146113aa578063b1b6b2ef146113c85761028a565b8063477ee3a7116102005780637e43d94d116101b95780637e43d94d146110de578063895c9b1f146110fc57806391c05b0b1461114b57806395776bfa146111795780639c56ea5a146111bb578063a30f8c4b146112825761028a565b8063477ee3a714610b3d57806359bf286f14610b8c5780635d0268e614610ce45780637a31af5014610d125780637bbcbccd14610f045780637dfb86a0146110825761028a565b80632bdb2e6b116102525780632bdb2e6b146107085780633501051d14610726578063379f5fed146108a45780633d5422c4146108e85780633e484abd146109a1578063438e9c4d14610b1f5761028a565b8063079240441461028f57806307f93193146102c75780631cbacf0d1461044557806323545999146104635780632b0187ac146105b0575b600080fd5b6102c5600480360360408110156102a557600080fd5b810190808035906020019092919080359060200190929190505050611e88565b005b610443600480360360808110156102dd57600080fd5b81019080803573ffffffffffffffffffffffffffffffffffffffff1690602001909291908035906020019064010000000081111561031a57600080fd5b82018360208201111561032c57600080fd5b8035906020019184600183028401116401000000008311171561034e57600080fd5b91908080601f016020809104026020016040519081016040528093929190818152602001838380828437600081840152601f19601f820116905080830192505050505050509192919290803590602001906401000000008111156103b157600080fd5b8201836020820111156103c357600080fd5b803590602001918460018302840111640100000000831117156103e557600080fd5b91908080601f016020809104026020016040519081016040528093929190818152602001838380828437600081840152601f19601f820116905080830192505050505050509192919290803515159060200190929190505050612420565b005b61044d6125e1565b6040518082815260200191505060405180910390f35b61048f6004803603602081101561047957600080fd5b81019080803590602001909291905050506125e7565b604051808573ffffffffffffffffffffffffffffffffffffffff1673ffffffffffffffffffffffffffffffffffffffff1681526020018481526020018060200180602001838103835285818151815260200191508051906020019080838360005b8381101561050b5780820151818401526020810190506104f0565b50505050905090810190601f1680156105385780820380516001836020036101000a031916815260200191505b50838103825284818151815260200191508051906020019080838360005b83811015610571578082015181840152602081019050610556565b50505050905090810190601f16801561059e5780820380516001836020036101000a031916815260200191505b50965050505050505060405180910390f35b6105dc600480360360208110156105c657600080fd5b8101908080359060200190929190505050612767565b604051808673ffffffffffffffffffffffffffffffffffffffff1673ffffffffffffffffffffffffffffffffffffffff168152602001858152602001806020018060200184151515158152602001838103835286818151815260200191508051906020019080838360005b83811015610662578082015181840152602081019050610647565b50505050905090810190601f16801561068f5780820380516001836020036101000a031916815260200191505b50838103825285818151815260200191508051906020019080838360005b838110156106c85780820151818401526020810190506106ad565b50505050905090810190601f1680156106f55780820380516001836020036101000a031916815260200191505b5097505050505050505060405180910390f35b6107106128fa565b6040518082815260200191505060405180910390f35b6108a26004803603608081101561073c57600080fd5b81019080803573ffffffffffffffffffffffffffffffffffffffff1690602001909291908035906020019064010000000081111561077957600080fd5b82018360208201111561078b57600080fd5b803590602001918460018302840111640100000000831117156107ad57600080fd5b91908080601f016020809104026020016040519081016040528093929190818152602001838380828437600081840152601f19601f8201169050808301925050505050505091929192908035906020019064010000000081111561081057600080fd5b82018360208201111561082257600080fd5b8035906020019184600183028401116401000000008311171561084457600080fd5b91908080601f016020809104026020016040519081016040528093929190818152602001838380828437600081840152601f19601f820116905080830192505050505050509192919290803515159060200190929190505050612900565b005b6108e6600480360360208110156108ba57600080fd5b81019080803573ffffffffffffffffffffffffffffffffffffffff169060200190929190505050612ac1565b005b610914600480360360208110156108fe57600080fd5b8101908080359060200190929190505050612c64565b604051808481526020018060200183151515158152602001828103825284818151815260200191508051906020019080838360005b83811015610964578082015181840152602081019050610949565b50505050905090810190601f1680156109915780820380516001836020036101000a031916815260200191505b5094505050505060405180910390f35b610b1d600480360360808110156109b757600080fd5b81019080803573ffffffffffffffffffffffffffffffffffffffff169060200190929190803590602001906401000000008111156109f457600080fd5b820183602082011115610a0657600080fd5b80359060200191846001830284011164010000000083111715610a2857600080fd5b91908080601f016020809104026020016040519081016040528093929190818152602001838380828437600081840152601f19601f82011690508083019250505050505050919291929080359060200190640100000000811115610a8b57600080fd5b820183602082011115610a9d57600080fd5b80359060200191846001830284011164010000000083111715610abf57600080fd5b91908080601f016020809104026020016040519081016040528093929190818152602001838380828437600081840152601f19601f820116905080830192505050505050509192919290803515159060200190929190505050612d33565b005b610b27612ef4565b6040518082815260200191505060405180910390f35b610b7660048036036040811015610b5357600080fd5b8101908080359060200190929190803560ff169060200190929190505050612efa565b6040518082815260200191505060405180910390f35b610bb860048036036020811015610ba257600080fd5b8101908080359060200190929190505050612f1f565b604051808673ffffffffffffffffffffffffffffffffffffffff1673ffffffffffffffffffffffffffffffffffffffff168152602001858152602001806020018060200184151515158152602001838103835286818151815260200191508051906020019080838360005b83811015610c3e578082015181840152602081019050610c23565b50505050905090810190601f168015610c6b5780820380516001836020036101000a031916815260200191505b50838103825285818151815260200191508051906020019080838360005b83811015610ca4578082015181840152602081019050610c89565b50505050905090810190601f168015610cd15780820380516001836020036101000a031916815260200191505b5097505050505050505060405180910390f35b610d1060048036036020811015610cfa57600080fd5b81019080803590602001909291905050506130b2565b005b610f0260048036036080811015610d2857600080fd5b8101908080359060200190640100000000811115610d4557600080fd5b820183602082011115610d5757600080fd5b80359060200191846001830284011164010000000083111715610d7957600080fd5b91908080601f016020809104026020016040519081016040528093929190818152602001838380828437600081840152601f19601f82011690508083019250505050505050919291929080359060200190640100000000811115610ddc57600080fd5b820183602082011115610dee57600080fd5b80359060200191846001830284011164010000000083111715610e1057600080fd5b91908080601f016020809104026020016040519081016040528093929190818152602001838380828437600081840152601f19601f82011690508083019250505050505050919291929080359060200190640100000000811115610e7357600080fd5b820183602082011115610e8557600080fd5b80359060200191846020830284011164010000000083111715610ea757600080fd5b919080806020026020016040519081016040528093929190818152602001838360200280828437600081840152601f19601f82011690508083019250505050505050919291929080351515906020019092919050505061333b565b005b61108060048036036080811015610f1a57600080fd5b81019080803573ffffffffffffffffffffffffffffffffffffffff16906020019092919080359060200190640100000000811115610f5757600080fd5b820183602082011115610f6957600080fd5b80359060200191846001830284011164010000000083111715610f8b57600080fd5b91908080601f016020809104026020016040519081016040528093929190818152602001838380828437600081840152601f19601f82011690508083019250505050505050919291929080359060200190640100000000811115610fee57600080fd5b82018360208201111561100057600080fd5b8035906020019184600183028401116401000000008311171561102257600080fd5b91908080601f016020809104026020016040519081016040528093929190818152602001838380828437600081840152601f19601f82011690508083019250505050505050919291929080351515906020019092919050505061355b565b005b6110c46004803603602081101561109857600080fd5b81019080803573ffffffffffffffffffffffffffffffffffffffff16906020019092919050505061371c565b604051808215151515815260200191505060405180910390f35b6110e661373c565b6040518082815260200191505060405180910390f35b6111356004803603604081101561111257600080fd5b8101908080359060200190929190803560ff169060200190929190505050613742565b6040518082815260200191505060405180910390f35b6111776004803603602081101561116157600080fd5b8101908080359060200190929190505050613782565b005b6111a56004803603602081101561118f57600080fd5b8101908080359060200190929190505050613a25565b6040518082815260200191505060405180910390f35b611280600480360360408110156111d157600080fd5b81019080803590602001906401000000008111156111ee57600080fd5b82018360208201111561120057600080fd5b8035906020019184600183028401116401000000008311171561122257600080fd5b91908080601f016020809104026020016040519081016040528093929190818152602001838380828437600081840152601f19601f820116905080830192505050505050509192919290803515159060200190929190505050613a3d565b005b6112b86004803603604081101561129857600080fd5b810190808035906020019092919080359060200190929190505050613c28565b6040518082815260200191505060405180910390f35b6112fa600480360360208110156112e457600080fd5b8101908080359060200190929190505050613c4d565b6040518088815260200187815260200186815260200185815260200184815260200183815260200182600581111561132e57fe5b60ff16815260200197505050505050505060405180910390f35b611350613c9c565b6040518082815260200191505060405180910390f35b6113a86004803603602081101561137c57600080fd5b81019080803573ffffffffffffffffffffffffffffffffffffffff169060200190929190505050613ca2565b005b6113b2613e44565b6040518082815260200191505060405180910390f35b6113f4600480360360208110156113de57600080fd5b8101908080359060200190929190505050613e4a565b005b6114226004803603602081101561140c57600080fd5b81019080803590602001909291905050506140ed565b005b61142c614390565b604051808273ffffffffffffffffffffffffffffffffffffffff1673ffffffffffffffffffffffffffffffffffffffff16815260200191505060405180910390f35b61149a6004803603602081101561148457600080fd5b81019080803590602001909291905050506143b5565b6040518080602001828103825283818151815260200191508051906020019060200280838360005b838110156114dd5780820151818401526020810190506114c2565b505050509050019250505060405180910390f35b6116616004803603606081101561150757600080fd5b81019080803573ffffffffffffffffffffffffffffffffffffffff1690602001909291908035906020019064010000000081111561154457600080fd5b82018360208201111561155657600080fd5b8035906020019184600183028401116401000000008311171561157857600080fd5b91908080601f016020809104026020016040519081016040528093929190818152602001838380828437600081840152601f19601f820116905080830192505050505050509192919290803590602001906401000000008111156115db57600080fd5b8201836020820111156115ed57600080fd5b8035906020019184600183028401116401000000008311171561160f57600080fd5b91908080601f016020809104026020016040519081016040528093929190818152602001838380828437600081840152601f19601f820116905080830192505050505050509192919290505050614423565b005b61168f6004803603602081101561167957600080fd5b81019080803590602001909291905050506145bb565b6040518080602001828103825283818151815260200191508051906020019060200280838360005b838110156116d25780820151818401526020810190506116b7565b505050509050019250505060405180910390f35b611712600480360360208110156116fc57600080fd5b8101908080359060200190929190505050614629565b60405180858152602001806020018060200184151515158152602001838103835286818151815260200191508051906020019080838360005b8381101561176657808201518184015260208101905061174b565b50505050905090810190601f1680156117935780820380516001836020036101000a031916815260200191505b50838103825285818151815260200191508051906020019080838360005b838110156117cc5780820151818401526020810190506117b1565b50505050905090810190601f1680156117f95780820380516001836020036101000a031916815260200191505b50965050505050505060405180910390f35b6118376004803603602081101561182157600080fd5b8101908080359060200190929190505050614796565b604051808673ffffffffffffffffffffffffffffffffffffffff1673ffffffffffffffffffffffffffffffffffffffff168152602001858152602001806020018060200184151515158152602001838103835286818151815260200191508051906020019080838360005b838110156118bd5780820151818401526020810190506118a2565b50505050905090810190601f1680156118ea5780820380516001836020036101000a031916815260200191505b50838103825285818151815260200191508051906020019080838360005b83811015611923578082015181840152602081019050611908565b50505050905090810190601f1680156119505780820380516001836020036101000a031916815260200191505b5097505050505050505060405180910390f35b6119a56004803603602081101561197957600080fd5b81019080803573ffffffffffffffffffffffffffffffffffffffff169060200190929190505050614929565b005b6119dd600480360360408110156119bd57600080fd5b810190808035906020019092919080359060200190929190505050614b25565b005b611b2f600480360360408110156119f557600080fd5b8101908080359060200190640100000000811115611a1257600080fd5b820183602082011115611a2457600080fd5b80359060200191846001830284011164010000000083111715611a4657600080fd5b91908080601f016020809104026020016040519081016040528093929190818152602001838380828437600081840152601f19601f82011690508083019250505050505050919291929080359060200190640100000000811115611aa957600080fd5b820183602082011115611abb57600080fd5b80359060200191846001830284011164010000000083111715611add57600080fd5b91908080601f016020809104026020016040519081016040528093929190818152602001838380828437600081840152601f19601f820116905080830192505050505050509192919290505050614ec6565b005b611b396150c3565b6040518082815260200191505060405180910390f35b611b7b60048036036020811015611b6557600080fd5b81019080803590602001909291905050506150c9565b6040518080602001828103825283818151815260200191508051906020019080838360005b83811015611bbb578082015181840152602081019050611ba0565b50505050905090810190601f168015611be85780820380516001836020036101000a031916815260200191505b509250505060405180910390f35b611c2260048036036020811015611c0c57600080fd5b81019080803590602001909291905050506153ab565b6040518082600660200280838360005b83811015611c4d578082015181840152602081019050611c32565b5050505090500191505060405180910390f35b611c8c60048036036020811015611c7657600080fd5b8101908080359060200190929190505050615529565b604051808673ffffffffffffffffffffffffffffffffffffffff1673ffffffffffffffffffffffffffffffffffffffff168152602001858152602001806020018060200184151515158152602001838103835286818151815260200191508051906020019080838360005b83811015611d12578082015181840152602081019050611cf7565b50505050905090810190601f168015611d3f5780820380516001836020036101000a031916815260200191505b50838103825285818151815260200191508051906020019080838360005b83811015611d78578082015181840152602081019050611d5d565b50505050905090810190601f168015611da55780820380516001836020036101000a031916815260200191505b5097505050505050505060405180910390f35b611dc06156bc565b6040518082815260200191505060405180910390f35b611e1860048036036020811015611dec57600080fd5b81019080803573ffffffffffffffffffffffffffffffffffffffff1690602001909291905050506156c2565b005b611e5060048036036040811015611e3057600080fd5b8101908080359060200190929190803590602001909291905050506158c8565b604051808215151515815260200191505060405180910390f35b611e726158f7565b6040518082815260200191505060405180910390f35b600082118015611e9a57506003548211155b611f0c576040517f08c379a00000000000000000000000000000000000000000000000000000000081526004018080602001828103825260108152602001807f496e76616c6964206f726465722049440000000000000000000000000000000081525060200191505060405180910390fd5b600081118015611f1e57506004548111155b611f90576040517f08c379a00000000000000000000000000000000000000000000000000000000081526004018080602001828103825260178152602001807f496e76616c696420726177206d6174657269616c20494400000000000000000081525060200191505060405180910390fd5b6000600d600084815260200190815260200160002090506000600b600083600001548152602001908152602001600020905060006005811115611fcf57fe5b8260070160009054906101000a900460ff166005811115611fec57fe5b14612042576040517f08c379a0000000000000000000000000000000000000000000000000000000008152600401808060200182810382526030815260200180615ec86030913960400191505060405180910390fd5b600061204d336158fd565b9050600081116120c5576040517f08c379a00000000000000000000000000000000000000000000000000000000081526004018080602001828103825260148152602001807f4e6f742061207265676973746572656420524d5300000000000000000000000081525060200191505060405180910390fd5b600080905060008090505b836004018054905081101561211657858460040182815481106120ef57fe5b906000526020600020015414156121095760019150612116565b80806001019150506120d0565b508061216d576040517f08c379a0000000000000000000000000000000000000000000000000000000008152600401808060200182810382526032815260200180615d8b6032913960400191505060405180910390fd5b60136000878152602001908152602001600020600086815260200190815260200160002060009054906101000a900460ff1615612212576040517f08c379a000000000000000000000000000000000000000000000000000000000815260040180806020018281038252601d8152602001807f526177206d6174657269616c20616c726561647920737570706c69656400000081525060200191505060405180910390fd5b6000600c600087815260200190815260200160002060020160009054906101000a900460ff16905080156122c257600e600061224d336158fd565b815260200190815260200160002060040160009054906101000a900460ff166122c1576040517f08c379a0000000000000000000000000000000000000000000000000000000008152600401808060200182810382526039815260200180615dbd6039913960400191505060405180910390fd5b5b600d60008881526020019081526020016000206002016122e1336158fd565b9080600181540180825580915050906001820390600052602060002001600090919290919091505550600160136000898152602001908152602001600020600088815260200190815260200160002060006101000a81548160ff021916908315150217905550612350336158fd565b6014600089815260200190815260200160002060008881526020019081526020016000208190555060156000888152602001908152602001600020600081548092919060010191905055503373ffffffffffffffffffffffffffffffffffffffff167fe9dd3771c06046c30df6a553143b5da46fd7fb0ae5e01ceaa6d49a3f2845bec1876040518082815260200191505060405180910390a283600401805490506015600089815260200190815260200160002054141561241757612416876001615999565b5b50505050505050565b6000809054906101000a900473ffffffffffffffffffffffffffffffffffffffff1673ffffffffffffffffffffffffffffffffffffffff163373ffffffffffffffffffffffffffffffffffffffff16146124c5576040517f08c379a0000000000000000000000000000000000000000000000000000000008152600401808060200182810382526022815260200180615ea66022913960400191505060405180910390fd5b6007600081548092919060010191905055506040518060a001604052808573ffffffffffffffffffffffffffffffffffffffff168152602001600754815260200184815260200183815260200182151581525060106000600754815260200190815260200160002060008201518160000160006101000a81548173ffffffffffffffffffffffffffffffffffffffff021916908373ffffffffffffffffffffffffffffffffffffffff16021790555060208201518160010155604082015181600201908051906020019061259a929190615c76565b5060608201518160030190805190602001906125b7929190615c76565b5060808201518160040160006101000a81548160ff02191690831515021790555090505050505050565b600a5481565b60126020528060005260406000206000915090508060000160009054906101000a900473ffffffffffffffffffffffffffffffffffffffff1690806001015490806002018054600181600116156101000203166002900480601f0160208091040260200160405190810160405280929190818152602001828054600181600116156101000203166002900480156126bf5780601f10612694576101008083540402835291602001916126bf565b820191906000526020600020905b8154815290600101906020018083116126a257829003601f168201915b505050505090806003018054600181600116156101000203166002900480601f01602080910402602001604051908101604052809291908181526020018280546001816001161561010002031660029004801561275d5780601f106127325761010080835404028352916020019161275d565b820191906000526020600020905b81548152906001019060200180831161274057829003601f168201915b5050505050905084565b60106020528060005260406000206000915090508060000160009054906101000a900473ffffffffffffffffffffffffffffffffffffffff1690806001015490806002018054600181600116156101000203166002900480601f01602080910402602001604051908101604052809291908181526020018280546001816001161561010002031660029004801561283f5780601f106128145761010080835404028352916020019161283f565b820191906000526020600020905b81548152906001019060200180831161282257829003601f168201915b505050505090806003018054600181600116156101000203166002900480601f0160208091040260200160405190810160405280929190818152602001828054600181600116156101000203166002900480156128dd5780601f106128b2576101008083540402835291602001916128dd565b820191906000526020600020905b8154815290600101906020018083116128c057829003601f168201915b5050505050908060040160009054906101000a900460ff16905085565b60075481565b6000809054906101000a900473ffffffffffffffffffffffffffffffffffffffff1673ffffffffffffffffffffffffffffffffffffffff163373ffffffffffffffffffffffffffffffffffffffff16146129a5576040517f08c379a0000000000000000000000000000000000000000000000000000000008152600401808060200182810382526022815260200180615ea66022913960400191505060405180910390fd5b6005600081548092919060010191905055506040518060a001604052808573ffffffffffffffffffffffffffffffffffffffff1681526020016005548152602001848152602001838152602001821515815250600e6000600554815260200190815260200160002060008201518160000160006101000a81548173ffffffffffffffffffffffffffffffffffffffff021916908373ffffffffffffffffffffffffffffffffffffffff160217905550602082015181600101556040820151816002019080519060200190612a7a929190615c76565b506060820151816003019080519060200190612a97929190615c76565b5060808201518160040160006101000a81548160ff02191690831515021790555090505050505050565b6000809054906101000a900473ffffffffffffffffffffffffffffffffffffffff1673ffffffffffffffffffffffffffffffffffffffff163373ffffffffffffffffffffffffffffffffffffffff1614612b66576040517f08c379a0000000000000000000000000000000000000000000000000000000008152600401808060200182810382526022815260200180615ea66022913960400191505060405180910390fd5b600073ffffffffffffffffffffffffffffffffffffffff168173ffffffffffffffffffffffffffffffffffffffff161415612c09576040517f08c379a000000000000000000000000000000000000000000000000000000000815260040180806020018281038252600f8152602001807f496e76616c69642061646472657373000000000000000000000000000000000081525060200191505060405180910390fd5b6000600160008373ffffffffffffffffffffffffffffffffffffffff1673ffffffffffffffffffffffffffffffffffffffff16815260200190815260200160002060006101000a81548160ff02191690831515021790555050565b600c602052806000526040600020600091509050806000015490806001018054600181600116156101000203166002900480601f016020809104026020016040519081016040528092919081815260200182805460018160011615610100020316600290048015612d165780601f10612ceb57610100808354040283529160200191612d16565b820191906000526020600020905b815481529060010190602001808311612cf957829003601f168201915b5050505050908060020160009054906101000a900460ff16905083565b6000809054906101000a900473ffffffffffffffffffffffffffffffffffffffff1673ffffffffffffffffffffffffffffffffffffffff163373ffffffffffffffffffffffffffffffffffffffff1614612dd8576040517f08c379a0000000000000000000000000000000000000000000000000000000008152600401808060200182810382526022815260200180615ea66022913960400191505060405180910390fd5b6006600081548092919060010191905055506040518060a001604052808573ffffffffffffffffffffffffffffffffffffffff1681526020016006548152602001848152602001838152602001821515815250600f6000600654815260200190815260200160002060008201518160000160006101000a81548173ffffffffffffffffffffffffffffffffffffffff021916908373ffffffffffffffffffffffffffffffffffffffff160217905550602082015181600101556040820151816002019080519060200190612ead929190615c76565b506060820151816003019080519060200190612eca929190615c76565b5060808201518160040160006101000a81548160ff02191690831515021790555090505050505050565b60065481565b6016602052816000526040600020602052806000526040600020600091509150505481565b60116020528060005260406000206000915090508060000160009054906101000a900473ffffffffffffffffffffffffffffffffffffffff1690806001015490806002018054600181600116156101000203166002900480601f016020809104026020016040519081016040528092919081815260200182805460018160011615610100020316600290048015612ff75780601f10612fcc57610100808354040283529160200191612ff7565b820191906000526020600020905b815481529060010190602001808311612fda57829003601f168201915b505050505090806003018054600181600116156101000203166002900480601f0160208091040260200160405190810160405280929190818152602001828054600181600116156101000203166002900480156130955780601f1061306a57610100808354040283529160200191613095565b820191906000526020600020905b81548152906001019060200180831161307857829003601f168201915b5050505050908060040160009054906101000a900460ff16905085565b6000809054906101000a900473ffffffffffffffffffffffffffffffffffffffff1673ffffffffffffffffffffffffffffffffffffffff163373ffffffffffffffffffffffffffffffffffffffff1614613157576040517f08c379a0000000000000000000000000000000000000000000000000000000008152600401808060200182810382526022815260200180615ea66022913960400191505060405180910390fd5b60008111801561316957506002548111155b6131db576040517f08c379a00000000000000000000000000000000000000000000000000000000081526004018080602001828103825260138152602001807f496e76616c6964206d65646963696e652049440000000000000000000000000081525060200191505060405180910390fd5b6003600081548092919060010191905055506060600060405190808252806020026020018201604052801561321f5781602001602082028038833980820191505090505b5090506040518061010001604052808381526020016003548152602001828152602001600081526020016000815260200160008152602001600081526020016000600581111561326b57fe5b815250600d60006003548152602001908152602001600020600082015181600001556020820151816001015560408201518160020190805190602001906132b3929190615cf6565b50606082015181600301556080820151816004015560a0820151816005015560c0820151816006015560e08201518160070160006101000a81548160ff0219169083600581111561330057fe5b02179055509050506003547f12a866cc569301d2ff9fcbbae3decc9e0cf3fa94ddef08dd0de3e9a693fb8d1960405160405180910390a25050565b6000809054906101000a900473ffffffffffffffffffffffffffffffffffffffff1673ffffffffffffffffffffffffffffffffffffffff163373ffffffffffffffffffffffffffffffffffffffff16146133e0576040517f08c379a0000000000000000000000000000000000000000000000000000000008152600401808060200182810382526022815260200180615ea66022913960400191505060405180910390fd5b6002600081548092919060010191905055506040518060a001604052806002548152602001858152602001848152602001821515815260200183815250600b60006002548152602001908152602001600020600082015181600001556020820151816001019080519060200190613458929190615c76565b506040820151816002019080519060200190613475929190615c76565b5060608201518160030160006101000a81548160ff02191690831515021790555060808201518160040190805190602001906134b2929190615cf6565b509050506002547f391a5327e58df0236e727eae6e91d54d5aae7a950c4e6616893611e349f6c64e856040518080602001828103825283818151815260200191508051906020019080838360005b8381101561351b578082015181840152602081019050613500565b50505050905090810190601f1680156135485780820380516001836020036101000a031916815260200191505b509250505060405180910390a250505050565b6000809054906101000a900473ffffffffffffffffffffffffffffffffffffffff1673ffffffffffffffffffffffffffffffffffffffff163373ffffffffffffffffffffffffffffffffffffffff1614613600576040517f08c379a0000000000000000000000000000000000000000000000000000000008152600401808060200182810382526022815260200180615ea66022913960400191505060405180910390fd5b6008600081548092919060010191905055506040518060a001604052808573ffffffffffffffffffffffffffffffffffffffff168152602001600854815260200184815260200183815260200182151581525060116000600854815260200190815260200160002060008201518160000160006101000a81548173ffffffffffffffffffffffffffffffffffffffff021916908373ffffffffffffffffffffffffffffffffffffffff1602179055506020820151816001015560408201518160020190805190602001906136d5929190615c76565b5060608201518160030190805190602001906136f2929190615c76565b5060808201518160040160006101000a81548160ff02191690831515021790555090505050505050565b60016020528060005260406000206000915054906101000a900460ff1681565b60085481565b600060166000848152602001908152602001600020600083600581111561376557fe5b60ff1660ff16815260200190815260200160002054905092915050565b60008111801561379457506003548111155b613806576040517f08c379a00000000000000000000000000000000000000000000000000000000081526004018080602001828103825260108152602001807f496e76616c6964206f726465722049440000000000000000000000000000000081525060200191505060405180910390fd5b6000600d600083815260200190815260200160002090506002600581111561382a57fe5b8160070160009054906101000a900460ff16600581111561384757fe5b146138ba576040517f08c379a000000000000000000000000000000000000000000000000000000000815260040180806020018281038252600e8152602001807f496e76616c69642073746167652100000000000000000000000000000000000081525060200191505060405180910390fd5b60008160000154905060006138ce33615aa2565b11613941576040517f08c379a000000000000000000000000000000000000000000000000000000000815260040180806020018281038252601d8152602001807f4e6f7420612072656769737465726564204469737472696275746f722100000081525060200191505060405180910390fd5b6000600b600083815260200190815260200160002060030160009054906101000a900460ff16905080156139f1576010600061397c33615aa2565b815260200190815260200160002060040160009054906101000a900460ff166139f0576040517f08c379a000000000000000000000000000000000000000000000000000000000815260040180806020018281038252603c815260200180615df6603c913960400191505060405180910390fd5b5b6139fa33615aa2565b600d600086815260200190815260200160002060040181905550613a1f846003615999565b50505050565b60156020528060005260406000206000915090505481565b6000809054906101000a900473ffffffffffffffffffffffffffffffffffffffff1673ffffffffffffffffffffffffffffffffffffffff163373ffffffffffffffffffffffffffffffffffffffff1614613ae2576040517f08c379a0000000000000000000000000000000000000000000000000000000008152600401808060200182810382526022815260200180615ea66022913960400191505060405180910390fd5b60046000815480929190600101919050555060405180606001604052806004548152602001838152602001821515815250600c60006004548152602001908152602001600020600082015181600001556020820151816001019080519060200190613b4e929190615c76565b5060408201518160020160006101000a81548160ff0219169083151502179055509050507ffe7f8a3e1a62e8909040aadcece565bded9c3688b6ca634873e03bc42a055d716004548383604051808481526020018060200183151515158152602001828103825284818151815260200191508051906020019080838360005b83811015613be8578082015181840152602081019050613bcd565b50505050905090810190601f168015613c155780820380516001836020036101000a031916815260200191505b5094505050505060405180910390a15050565b6014602052816000526040600020602052806000526040600020600091509150505481565b600d6020528060005260406000206000915090508060000154908060010154908060030154908060040154908060050154908060060154908060070160009054906101000a900460ff16905087565b60025481565b6000809054906101000a900473ffffffffffffffffffffffffffffffffffffffff1673ffffffffffffffffffffffffffffffffffffffff163373ffffffffffffffffffffffffffffffffffffffff1614613d47576040517f08c379a0000000000000000000000000000000000000000000000000000000008152600401808060200182810382526022815260200180615ea66022913960400191505060405180910390fd5b600073ffffffffffffffffffffffffffffffffffffffff168173ffffffffffffffffffffffffffffffffffffffff161415613dea576040517f08c379a000000000000000000000000000000000000000000000000000000000815260040180806020018281038252600f8152602001807f496e76616c69642061646472657373000000000000000000000000000000000081525060200191505060405180910390fd5b60018060008373ffffffffffffffffffffffffffffffffffffffff1673ffffffffffffffffffffffffffffffffffffffff16815260200190815260200160002060006101000a81548160ff02191690831515021790555050565b60095481565b600081118015613e5c57506003548111155b613ece576040517f08c379a00000000000000000000000000000000000000000000000000000000081526004018080602001828103825260108152602001807f496e76616c6964206f726465722049440000000000000000000000000000000081525060200191505060405180910390fd5b6000600d6000838152602001908152602001600020905060016005811115613ef257fe5b8160070160009054906101000a900460ff166005811115613f0f57fe5b14613f82576040517f08c379a000000000000000000000000000000000000000000000000000000000815260040180806020018281038252600e8152602001807f496e76616c69642073746167652100000000000000000000000000000000000081525060200191505060405180910390fd5b6000816000015490506000613f9633615b3e565b11614009576040517f08c379a000000000000000000000000000000000000000000000000000000000815260040180806020018281038252601e8152602001807f4e6f7420612072656769737465726564206d616e75666163747572657221000081525060200191505060405180910390fd5b6000600b600083815260200190815260200160002060030160009054906101000a900460ff16905080156140b957600f600061404433615b3e565b815260200190815260200160002060040160009054906101000a900460ff166140b8576040517f08c379a000000000000000000000000000000000000000000000000000000000815260040180806020018281038252603d815260200180615e69603d913960400191505060405180910390fd5b5b6140c233615b3e565b600d6000868152602001908152602001600020600301819055506140e7846002615999565b50505050565b6000811180156140ff57506003548111155b614171576040517f08c379a00000000000000000000000000000000000000000000000000000000081526004018080602001828103825260108152602001807f496e76616c6964206f726465722049440000000000000000000000000000000081525060200191505060405180910390fd5b6000600d600083815260200190815260200160002090506003600581111561419557fe5b8160070160009054906101000a900460ff1660058111156141b257fe5b14614225576040517f08c379a000000000000000000000000000000000000000000000000000000000815260040180806020018281038252600e8152602001807f496e76616c69642073746167652100000000000000000000000000000000000081525060200191505060405180910390fd5b600081600001549050600061423933615bda565b116142ac576040517f08c379a000000000000000000000000000000000000000000000000000000000815260040180806020018281038252601a8152602001807f4e6f74206120726567697374657265642052657461696c65722100000000000081525060200191505060405180910390fd5b6000600b600083815260200190815260200160002060030160009054906101000a900460ff169050801561435c57601160006142e733615bda565b815260200190815260200160002060040160009054906101000a900460ff1661435b576040517f08c379a0000000000000000000000000000000000000000000000000000000008152600401808060200182810382526037815260200180615e326037913960400191505060405180910390fd5b5b61436533615bda565b600d60008681526020019081526020016000206005018190555061438a846004615999565b50505050565b6000809054906101000a900473ffffffffffffffffffffffffffffffffffffffff1681565b6060600b600083815260200190815260200160002060040180548060200260200160405190810160405280929190818152602001828054801561441757602002820191906000526020600020905b815481526020019060010190808311614403575b50505050509050919050565b6000809054906101000a900473ffffffffffffffffffffffffffffffffffffffff1673ffffffffffffffffffffffffffffffffffffffff163373ffffffffffffffffffffffffffffffffffffffff16146144c8576040517f08c379a0000000000000000000000000000000000000000000000000000000008152600401808060200182810382526022815260200180615ea66022913960400191505060405180910390fd5b60096000815480929190600101919050555060405180608001604052808473ffffffffffffffffffffffffffffffffffffffff16815260200160095481526020018381526020018281525060126000600954815260200190815260200160002060008201518160000160006101000a81548173ffffffffffffffffffffffffffffffffffffffff021916908373ffffffffffffffffffffffffffffffffffffffff160217905550602082015181600101556040820151816002019080519060200190614595929190615c76565b5060608201518160030190805190602001906145b2929190615c76565b50905050505050565b6060600d600083815260200190815260200160002060020180548060200260200160405190810160405280929190818152602001828054801561461d57602002820191906000526020600020905b815481526020019060010190808311614609575b50505050509050919050565b600b602052806000526040600020600091509050806000015490806001018054600181600116156101000203166002900480601f0160208091040260200160405190810160405280929190818152602001828054600181600116156101000203166002900480156146db5780601f106146b0576101008083540402835291602001916146db565b820191906000526020600020905b8154815290600101906020018083116146be57829003601f168201915b505050505090806002018054600181600116156101000203166002900480601f0160208091040260200160405190810160405280929190818152602001828054600181600116156101000203166002900480156147795780601f1061474e57610100808354040283529160200191614779565b820191906000526020600020905b81548152906001019060200180831161475c57829003601f168201915b5050505050908060030160009054906101000a900460ff16905084565b600f6020528060005260406000206000915090508060000160009054906101000a900473ffffffffffffffffffffffffffffffffffffffff1690806001015490806002018054600181600116156101000203166002900480601f01602080910402602001604051908101604052809291908181526020018280546001816001161561010002031660029004801561486e5780601f106148435761010080835404028352916020019161486e565b820191906000526020600020905b81548152906001019060200180831161485157829003601f168201915b505050505090806003018054600181600116156101000203166002900480601f01602080910402602001604051908101604052809291908181526020018280546001816001161561010002031660029004801561490c5780601f106148e15761010080835404028352916020019161490c565b820191906000526020600020905b8154815290600101906020018083116148ef57829003601f168201915b5050505050908060040160009054906101000a900460ff16905085565b6000809054906101000a900473ffffffffffffffffffffffffffffffffffffffff1673ffffffffffffffffffffffffffffffffffffffff163373ffffffffffffffffffffffffffffffffffffffff16146149ce576040517f08c379a0000000000000000000000000000000000000000000000000000000008152600401808060200182810382526022815260200180615ea66022913960400191505060405180910390fd5b600073ffffffffffffffffffffffffffffffffffffffff168173ffffffffffffffffffffffffffffffffffffffff161415614a71576040517f08c379a00000000000000000000000000000000000000000000000000000000081526004018080602001828103825260128152602001807f496e76616c696420726567756c61746f7221000000000000000000000000000081525060200191505060405180910390fd5b60018060008373ffffffffffffffffffffffffffffffffffffffff1673ffffffffffffffffffffffffffffffffffffffff16815260200190815260200160002060006101000a81548160ff0219169083151502179055508073ffffffffffffffffffffffffffffffffffffffff163373ffffffffffffffffffffffffffffffffffffffff167f88450118a6df01d6b5c0d9825e2a66d86c44cab43f51bfcd00dbe818493a55b960405160405180910390a350565b600082118015614b3757506003548211155b614ba9576040517f08c379a00000000000000000000000000000000000000000000000000000000081526004018080602001828103825260108152602001807f496e76616c6964206f726465722049440000000000000000000000000000000081525060200191505060405180910390fd5b600081118015614bbb57506009548111155b614c2d576040517f08c379a00000000000000000000000000000000000000000000000000000000081526004018080602001828103825260138152602001807f496e76616c696420637573746f6d65722049440000000000000000000000000081525060200191505060405180910390fd5b6000600d600084815260200190815260200160002090508060050154614c5233615bda565b14614cc5576040517f08c379a00000000000000000000000000000000000000000000000000000000081526004018080602001828103825260198152602001807f4e6f742074686520636f72726563742072657461696c6572210000000000000081525060200191505060405180910390fd5b60046005811115614cd257fe5b8160070160009054906101000a900460ff166005811115614cef57fe5b14614d62576040517f08c379a000000000000000000000000000000000000000000000000000000000815260040180806020018281038252600e8152602001807f496e76616c69642073746167652100000000000000000000000000000000000081525060200191505060405180910390fd5b6000816000015490506000614d7633615bda565b11614de9576040517f08c379a000000000000000000000000000000000000000000000000000000000815260040180806020018281038252601a8152602001807f4e6f74206120726567697374657265642052657461696c65722100000000000081525060200191505060405180910390fd5b6000600b600083815260200190815260200160002060030160009054906101000a900460ff1690508015614e995760116000614e2433615bda565b815260200190815260200160002060040160009054906101000a900460ff16614e98576040517f08c379a0000000000000000000000000000000000000000000000000000000008152600401808060200182810382526037815260200180615e326037913960400191505060405180910390fd5b5b83600d600087815260200190815260200160002060060181905550614ebf856005615999565b5050505050565b60008090506000600190505b6009548111614f5b573373ffffffffffffffffffffffffffffffffffffffff166012600083815260200190815260200160002060000160009054906101000a900473ffffffffffffffffffffffffffffffffffffffff1673ffffffffffffffffffffffffffffffffffffffff161415614f4e5760019150614f5b565b8080600101915050614ed2565b508015614fd0576040517f08c379a000000000000000000000000000000000000000000000000000000000815260040180806020018281038252601c8152602001807f437573746f6d657220616c72656164792072656769737465726564210000000081525060200191505060405180910390fd5b60096000815480929190600101919050555060405180608001604052803373ffffffffffffffffffffffffffffffffffffffff16815260200160095481526020018481526020018381525060126000600954815260200190815260200160002060008201518160000160006101000a81548173ffffffffffffffffffffffffffffffffffffffff021916908373ffffffffffffffffffffffffffffffffffffffff16021790555060208201518160010155604082015181600201908051906020019061509d929190615c76565b5060608201518160030190805190602001906150ba929190615c76565b50905050505050565b60055481565b60606000821180156150dd57506003548211155b61514f576040517f08c379a00000000000000000000000000000000000000000000000000000000081526004018080602001828103825260148152602001807f496e76616c6964206d65646963696e652049442100000000000000000000000081525060200191505060405180910390fd5b6000600d600084815260200190815260200160002060070160009054906101000a900460ff1690506000600581111561518457fe5b81600581111561519057fe5b14156151d4576040518060400160405280601081526020017f4d65646963696e65204f726465726564000000000000000000000000000000008152509150506153a6565b600160058111156151e157fe5b8160058111156151ed57fe5b1415615231576040518060400160405280601581526020017f526177204d6174657269616c20537570706c69656400000000000000000000008152509150506153a6565b6002600581111561523e57fe5b81600581111561524a57fe5b141561528e576040518060400160405280601581526020017f4d616e75666163747572696e672050726f6365737300000000000000000000008152509150506153a6565b6003600581111561529b57fe5b8160058111156152a757fe5b14156152eb576040518060400160405280600f81526020017f496e20446973747269627574696f6e00000000000000000000000000000000008152509150506153a6565b600460058111156152f857fe5b81600581111561530457fe5b1415615348576040518060400160405280600f81526020017f41742052657461696c2053746f726500000000000000000000000000000000008152509150506153a6565b60058081111561535457fe5b81600581111561536057fe5b14156153a4576040518060400160405280600d81526020017f4d65646963696e6520536f6c64000000000000000000000000000000000000008152509150506153a6565b505b919050565b6153b3615d43565b6040518060c001604052806016600085815260200190815260200160002060008060058111156153df57fe5b60ff1660ff1681526020019081526020016000205481526020016016600085815260200190815260200160002060006001600581111561541b57fe5b60ff1660ff1681526020019081526020016000205481526020016016600085815260200190815260200160002060006002600581111561545757fe5b60ff1660ff1681526020019081526020016000205481526020016016600085815260200190815260200160002060006003600581111561549357fe5b60ff1660ff168152602001908152602001600020548152602001601660008581526020019081526020016000206000600460058111156154cf57fe5b60ff1660ff16815260200190815260200160002054815260200160166000858152602001908152602001600020600060058081111561550a57fe5b60ff1660ff168152602001908152602001600020548152509050919050565b600e6020528060005260406000206000915090508060000160009054906101000a900473ffffffffffffffffffffffffffffffffffffffff1690806001015490806002018054600181600116156101000203166002900480601f0160208091040260200160405190810160405280929190818152602001828054600181600116156101000203166002900480156156015780601f106155d657610100808354040283529160200191615601565b820191906000526020600020905b8154815290600101906020018083116155e457829003601f168201915b505050505090806003018054600181600116156101000203166002900480601f01602080910402602001604051908101604052809291908181526020018280546001816001161561010002031660029004801561569f5780601f106156745761010080835404028352916020019161569f565b820191906000526020600020905b81548152906001019060200180831161568257829003601f168201915b5050505050908060040160009054906101000a900460ff16905085565b60045481565b6000809054906101000a900473ffffffffffffffffffffffffffffffffffffffff1673ffffffffffffffffffffffffffffffffffffffff163373ffffffffffffffffffffffffffffffffffffffff1614615767576040517f08c379a0000000000000000000000000000000000000000000000000000000008152600401808060200182810382526022815260200180615ea66022913960400191505060405180910390fd5b600073ffffffffffffffffffffffffffffffffffffffff168173ffffffffffffffffffffffffffffffffffffffff16141561580a576040517f08c379a00000000000000000000000000000000000000000000000000000000081526004018080602001828103825260128152602001807f496e76616c6964206e6577206f776e657221000000000000000000000000000081525060200191505060405180910390fd5b8073ffffffffffffffffffffffffffffffffffffffff166000809054906101000a900473ffffffffffffffffffffffffffffffffffffffff1673ffffffffffffffffffffffffffffffffffffffff167f8be0079c531659141344cd1fd0a4f28419497f9722a3daafe3b4186f6b6457e060405160405180910390a3806000806101000a81548173ffffffffffffffffffffffffffffffffffffffff021916908373ffffffffffffffffffffffffffffffffffffffff16021790555050565b60136020528160005260406000206020528060005260406000206000915091509054906101000a900460ff1681565b60035481565b600080600190505b600554811161598e578273ffffffffffffffffffffffffffffffffffffffff16600e600083815260200190815260200160002060000160009054906101000a900473ffffffffffffffffffffffffffffffffffffffff1673ffffffffffffffffffffffffffffffffffffffff1614156159815780915050615994565b8080600101915050615905565b50600090505b919050565b80600d600084815260200190815260200160002060070160006101000a81548160ff021916908360058111156159cb57fe5b0217905550426016600084815260200190815260200160002060008360058111156159f257fe5b60ff1660ff16815260200190815260200160002081905550817fe07678ebda9ff268c2c8531bb0ebfc488d9fa7067d919572337a14a72c3aa0b78260405180826005811115615a3d57fe5b60ff16815260200191505060405180910390a2817f83ad02eb6e9791cd02b88a1b4781dc22fe4aad5a8ed80be970f4c45eff0bdb1b824260405180836005811115615a8457fe5b60ff1681526020018281526020019250505060405180910390a25050565b600080600190505b6007548111615b33578273ffffffffffffffffffffffffffffffffffffffff166010600083815260200190815260200160002060000160009054906101000a900473ffffffffffffffffffffffffffffffffffffffff1673ffffffffffffffffffffffffffffffffffffffff161415615b265780915050615b39565b8080600101915050615aaa565b50600090505b919050565b600080600190505b6006548111615bcf578273ffffffffffffffffffffffffffffffffffffffff16600f600083815260200190815260200160002060000160009054906101000a900473ffffffffffffffffffffffffffffffffffffffff1673ffffffffffffffffffffffffffffffffffffffff161415615bc25780915050615bd5565b8080600101915050615b46565b50600090505b919050565b600080600190505b6008548111615c6b578273ffffffffffffffffffffffffffffffffffffffff166011600083815260200190815260200160002060000160009054906101000a900473ffffffffffffffffffffffffffffffffffffffff1673ffffffffffffffffffffffffffffffffffffffff161415615c5e5780915050615c71565b8080600101915050615be2565b50600090505b919050565b828054600181600116156101000203166002900490600052602060002090601f016020900481019282601f10615cb757805160ff1916838001178555615ce5565b82800160010185558215615ce5579182015b82811115615ce4578251825591602001919060010190615cc9565b5b509050615cf29190615d65565b5090565b828054828255906000526020600020908101928215615d32579160200282015b82811115615d31578251825591602001919060010190615d16565b5b509050615d3f9190615d65565b5090565b6040518060c00160405280600690602082028038833980820191505090505090565b615d8791905b80821115615d83576000816000905550600101615d6b565b5090565b9056fe5468697320726177206d6174657269616c206973206e6f7420726571756972656420666f7220746865206d65646963696e65556e766572696669656420524d532063616e6e6f7420737570706c79206475616c2d707265637572736f7220726177206d6174657269616c73556e7665726966696564204469737472696275746f722063616e6e6f7420737570706c79206475616c2d707265637572736f72204d65646963696e65556e76657269666965642052657461696c65722063616e6e6f742073656c6c206475616c2d707265637572736f72204d65646963696e65556e7665726966696564204d616e7566616374757265722063616e6e6f7420737570706c79206475616c2d707265637572736f72204d65646963696e654f6e6c79206f776e65722063616e20706572666f726d207468697320616374696f6e526177206d6174657269616c732063616e206f6e6c7920626520737570706c69656420617420496e6974207374616765a265627a7a72315820e77563372c657edebb2714f386f4ad2d020e5fb0697254f1658cc0c58297fcc364736f6c63430005100032",
  "source": "// SPDX-License-Identifier: MIT\npragma solidity >=0.4.22 <0.9.0;\n\ncontract SupplyChain {\n\n    address public Owner;\n    mapping(address => bool) public regulators;  \n\n    constructor() public {\n        Owner = msg.sender;\n        regulators[msg.sender] = true; \n    }\n\n    modifier onlyByOwner() {\n        require(msg.sender == Owner, \"Only owner can perform this action\");\n        _;\n    }\n\n    modifier onlyByRegulator() {\n        require(regulators[msg.sender], \"Only regulators can perform this action\");\n        _;\n    }\n\n    enum STAGE {\n        Init,\n        RawMaterialSupply,\n        Manufacture,\n        Distribution,\n        Retail,\n        Sold\n    }\n\n    struct Medicine {\n        uint256 id;\n        string name;\n        string description;\n        bool isPrecursor;\n        uint256[] requiredRawMaterials;\n    }\n\n    struct RawMaterial {\n        uint256 id;\n        string name;\n        bool isPrecursor;\n    }\n\n    struct Order {\n        uint256 MedicineId;\n        uint256 orderId;\n        uint256[] RMSid;\n        uint256 MANid;\n        uint256 DISid;\n        uint256 RETid;\n        uint256 CUSTid;\n        STAGE stage;\n    }\n\n    struct RawMaterialSupplier {\n        address addr;\n        uint256 id;\n        string name;\n        string place;\n        bool urnVerified;\n    }\n    \n    struct Manufacturer {\n        address addr;\n        uint256 id;\n        string name;\n        string place;\n        bool urnVerified;\n    }\n    \n    struct Distributor {\n        address addr;\n        uint256 id;\n        string name;\n        string place;\n        bool urnVerified;\n    }\n    \n    struct Retailer {\n        address addr;\n        uint256 id;\n        string name;\n        string place;\n        bool urnVerified;\n    }\n\n    struct Customer {\n        address addr;\n        uint256 id;\n        string name;\n        string email;\n    }\n\n    uint256 public medicineCtr = 0;\n    uint256 public orderCtr =0;\n    uint256 public rawMaterialCtr=0;\n    uint256 public rmsCtr = 0;\n    uint256 public manCtr = 0;\n    uint256 public disCtr = 0;\n    uint256 public retCtr = 0;\n    uint256 public custCtr =0;\n    uint256 public regulatorCtr = 0;\n    \n\n    mapping(uint256 => Medicine) public medicines;\n    mapping(uint256 => RawMaterial) public rawMaterials;\n    mapping(uint256 => Order) public orders;\n    mapping(uint256 => RawMaterialSupplier) public RMS;\n    mapping(uint256 => Manufacturer) public MAN;\n    mapping(uint256 => Distributor) public DIS;\n    mapping(uint256 => Retailer) public RET;\n    mapping(uint256 => Customer) public CUST;\n    mapping(uint256 => mapping(uint256 => bool)) public rawMaterialsSupplied;\n    mapping(uint256 => mapping(uint256 => uint256)) public rawMaterialsSupplier;\n    mapping(uint256 => uint256) public suppliedMaterialCount; \n    mapping(uint256 => mapping(uint8 => uint256)) public stageTimestamps;\n\n    event MedicineAdded(uint256 indexed id, string name);\n    event RawMaterialAdded(uint256 id, string name, bool isPrecursor);\n    event OrderAdded(uint256 indexed id);\n    event StageUpdated(uint256 indexed orderId, STAGE stage);\n    event OwnershipTransferred(address indexed oldOwner, address indexed newOwner);\n    event URNSupplierRegistered(address urnSupplier);\n    event RegulatorChanged(address indexed oldRegulator, address indexed newRegulator);\n    event RawMaterialSupplied(address indexed supplier, uint256 rawMaterialID);\n    event StageUpdatedWithTimestamp(uint256 indexed orderId, STAGE stage, uint256 timestamp);\n\n    function transferOwnership(address _newOwner) public onlyByOwner {\n        require(_newOwner != address(0), \"Invalid new owner!\");\n        emit OwnershipTransferred(Owner, _newOwner);\n        Owner = _newOwner;\n    }\n\n    function setRegulator(address _newRegulator) public onlyByOwner {\n        require(_newRegulator != address(0), \"Invalid regulator!\");\n        regulators[_newRegulator] = true;\n        emit RegulatorChanged(msg.sender, _newRegulator);\n    }   \n    \n    function addRegulator(address _regulator) public onlyByOwner {\n        require(_regulator != address(0), \"Invalid address\");\n        regulators[_regulator] = true;\n    }\n\n    function removeRegulator(address _regulator) public onlyByOwner {\n        require(_regulator != address(0), \"Invalid address\");\n        regulators[_regulator] = false;\n    }\n\n    function registerCustomer(string memory _name, string memory _email) public {\n        bool isRegistered=false;\n        for (uint256 i = 1; i <=custCtr; i++) {\n            if (CUST[i].addr == msg.sender) {\n                isRegistered=true;\n                break;\n            }\n        }\n        require(!isRegistered, \"Customer already registered!\");\n        custCtr++;\n        CUST[custCtr] = Customer( msg.sender, custCtr, _name, _email);\n    }\n\n    function addMedicine(string memory _name, string memory _description, uint256[] memory _rawMaterials, bool _isPrecursor) public onlyByOwner {\n        medicineCtr++;\n        medicines[medicineCtr] = Medicine(medicineCtr, _name, _description, _isPrecursor, _rawMaterials);\n        emit MedicineAdded(medicineCtr, _name);\n    }\n\n    function addRawMaterial(string memory _name, bool _isPrecursor) public onlyByOwner {\n        rawMaterialCtr++;\n        rawMaterials[rawMaterialCtr] = RawMaterial(rawMaterialCtr, _name, _isPrecursor);\n        emit RawMaterialAdded(rawMaterialCtr, _name, _isPrecursor);\n    }\n    \n    function addRMS(address _address, string memory _name, string memory _place, bool _isVerified) public onlyByOwner {\n        rmsCtr++;\n        RMS[rmsCtr] = RawMaterialSupplier(_address, rmsCtr, _name, _place, _isVerified);\n    }\n\n    function addManufacturer(address _address, string memory _name, string memory _place,bool _isVerified) public onlyByOwner {\n        manCtr++;\n        MAN[manCtr] = Manufacturer(_address, manCtr, _name, _place, _isVerified);\n    }\n\n    function addDistributor(address _address, string memory _name, string memory _place, bool _isVerified) public onlyByOwner {\n        disCtr++;\n        DIS[disCtr] = Distributor(_address, disCtr, _name, _place, _isVerified);\n    }\n\n    function addRetailer(address _address, string memory _name, string memory _place, bool _isVerified) public onlyByOwner {\n        retCtr++;\n        RET[retCtr] = Retailer(_address, retCtr, _name, _place, _isVerified);\n    }\n\n    function addCustomer(address _address, string memory _name, string memory _email) public onlyByOwner {\n        custCtr++;\n        CUST[custCtr] = Customer(_address, custCtr, _name, _email);\n    }\n\n    function addOrder(uint256 medicineId) public onlyByOwner {\n        require(medicineId > 0 && medicineId <= medicineCtr, \"Invalid medicine ID\");\n        orderCtr++;\n        uint256[] memory emptyArray = new uint256[](0);\n        orders[orderCtr] = Order(medicineId, orderCtr, emptyArray, 0, 0, 0, 0, STAGE.Init);\n        emit OrderAdded(orderCtr);\n         \n    }\n\n    function showStage(uint256 _orderId) public view returns (string memory) {\n        require(_orderId > 0 && _orderId <= orderCtr, \"Invalid medicine ID!\");\n        STAGE stage = orders[_orderId].stage;\n        if (stage == STAGE.Init) return \"Medicine Ordered\";\n        if (stage == STAGE.RawMaterialSupply) return \"Raw Material Supplied\";\n        if (stage == STAGE.Manufacture) return \"Manufacturing Process\";\n        if (stage == STAGE.Distribution) return \"In Distribution\";\n        if (stage == STAGE.Retail) return \"At Retail Store\";\n        if (stage == STAGE.Sold) return \"Medicine Sold\";\n    }\n\n    function updateStage(uint256 _orderId, STAGE _newStage) internal {\n        orders[_orderId].stage = _newStage;\n        stageTimestamps[_orderId][uint8(_newStage)] = block.timestamp;\n        emit StageUpdated(_orderId, _newStage);\n        emit StageUpdatedWithTimestamp(_orderId, _newStage, block.timestamp);\n    }\n    function getStageTimestamp(uint256 _orderId, STAGE _stage) public view returns (uint256) {\n        return stageTimestamps[_orderId][uint8(_stage)];\n    }\n    \n    function getAllTimestamps(uint256 _orderId) public view returns (uint256[6] memory) {\n        return [\n            stageTimestamps[_orderId][uint8(STAGE.Init)],\n            stageTimestamps[_orderId][uint8(STAGE.RawMaterialSupply)],\n            stageTimestamps[_orderId][uint8(STAGE.Manufacture)],\n            stageTimestamps[_orderId][uint8(STAGE.Distribution)],\n            stageTimestamps[_orderId][uint8(STAGE.Retail)],\n            stageTimestamps[_orderId][uint8(STAGE.Sold)]\n        ];\n    }\n    function supplyRawMaterials(uint256 _orderId, uint256 _rawMaterialID) public {\n        require(_orderId > 0 && _orderId <= orderCtr, \"Invalid order ID\");\n        require(_rawMaterialID > 0 && _rawMaterialID <= rawMaterialCtr, \"Invalid raw material ID\");\n\n        Order storage order = orders[_orderId];\n        Medicine storage medicine = medicines[order.MedicineId];\n\n        require(order.stage == STAGE.Init, \"Raw materials can only be supplied at Init stage\");\n\n        uint256 rmsId = findRMS(msg.sender);\n        require(rmsId > 0, \"Not a registered RMS\");\n\n        bool isRequired = false;\n        for (uint256 i = 0; i < medicine.requiredRawMaterials.length; i++) {\n            if (medicine.requiredRawMaterials[i] == _rawMaterialID) {\n                isRequired = true;\n                break;\n            }\n        }\n        require(isRequired, \"This raw material is not required for the medicine\");\n        require(!rawMaterialsSupplied[_orderId][_rawMaterialID], \"Raw material already supplied\");\n\n        bool isDualPrecursor = rawMaterials[_rawMaterialID].isPrecursor;\n        if (isDualPrecursor) {\n            require(RMS[findRMS(msg.sender)].urnVerified, \"Unverified RMS cannot supply dual-precursor raw materials\");\n        }\n\n        orders[_orderId].RMSid.push(findRMS(msg.sender));\n        rawMaterialsSupplied[_orderId][_rawMaterialID] = true;\n        rawMaterialsSupplier[_orderId][_rawMaterialID]= findRMS(msg.sender);\n        suppliedMaterialCount[_orderId]++;\n\n        emit RawMaterialSupplied(msg.sender, _rawMaterialID);\n\n        if (suppliedMaterialCount[_orderId] == medicine.requiredRawMaterials.length) {\n            updateStage(_orderId, STAGE.RawMaterialSupply);\n        }\n    }\n\n    function manufacture(uint256 _orderId) public {\n        require(_orderId > 0 && _orderId <= orderCtr, \"Invalid order ID\");\n        Order storage order = orders[_orderId];\n        require(order.stage == STAGE.RawMaterialSupply, \"Invalid stage!\");\n        uint256 medicineId = order.MedicineId;\n        require(findMAN(msg.sender) > 0, \"Not a registered manufacturer!\");\n        bool isDualPrecursor = medicines[medicineId].isPrecursor;\n        if (isDualPrecursor) {\n            require(MAN[findMAN(msg.sender)].urnVerified, \"Unverified Manufacturer cannot supply dual-precursor Medicine\");\n        }\n    \n        orders[_orderId].MANid = findMAN(msg.sender);\n        updateStage(_orderId, STAGE.Manufacture);\n    }\n    \n    function distribute(uint256 _orderId) public {\n        require(_orderId > 0 && _orderId <= orderCtr, \"Invalid order ID\");\n        Order storage order = orders[_orderId];\n        require(order.stage == STAGE.Manufacture, \"Invalid stage!\");\n        uint256 medicineId = order.MedicineId;\n        require(findDIS(msg.sender) > 0, \"Not a registered Distributor!\");\n        bool isDualPrecursor = medicines[medicineId].isPrecursor;\n        if (isDualPrecursor) {\n            require(DIS[findDIS(msg.sender)].urnVerified, \"Unverified Distributor cannot supply dual-precursor Medicine\");\n        }\n        orders[_orderId].DISid = findDIS(msg.sender);\n        updateStage(_orderId, STAGE.Distribution);\n    }\n\n    function retail(uint256 _orderId) public {\n        require(_orderId > 0 && _orderId <= orderCtr, \"Invalid order ID\");\n        Order storage order = orders[_orderId];\n        require(order.stage == STAGE.Distribution, \"Invalid stage!\");\n        uint256 medicineId = order.MedicineId;\n        require(findRET(msg.sender) > 0, \"Not a registered Retailer!\");\n        bool isDualPrecursor = medicines[medicineId].isPrecursor;\n        if (isDualPrecursor) {\n            require(RET[findRET(msg.sender)].urnVerified, \"Unverified Retailer cannot sell dual-precursor Medicine\");\n        }\n\n        orders[_orderId].RETid = findRET(msg.sender);\n        updateStage(_orderId, STAGE.Retail);\n    }\n\n    function sell(uint256 _orderId, uint256 _customerId) public {\n        require(_orderId > 0 && _orderId <= orderCtr, \"Invalid order ID\");\n        require(_customerId > 0 && _customerId <= custCtr, \"Invalid customer ID\");\n\n        Order storage order = orders[_orderId];\n        require(findRET(msg.sender) == order.RETid, \"Not the correct retailer!\");\n        require(order.stage == STAGE.Retail, \"Invalid stage!\");\n\n        uint256 medicineId = order.MedicineId;\n        require(findRET(msg.sender) > 0, \"Not a registered Retailer!\");\n        bool isDualPrecursor = medicines[medicineId].isPrecursor;\n        if (isDualPrecursor) {\n            require(RET[findRET(msg.sender)].urnVerified, \"Unverified Retailer cannot sell dual-precursor Medicine\");\n        }\n\n        orders[_orderId].CUSTid = _customerId;\n        updateStage(_orderId, STAGE.Sold);\n    }\n\n    function findRMS(address _address) private view returns (uint256) {\n        for (uint256 i = 1; i <= rmsCtr; i++) {\n            if (RMS[i].addr == _address) return i;\n        }\n        return 0;\n    }\n\n    function findMAN(address _address) private view returns (uint256) {\n        for (uint256 i = 1; i <= manCtr; i++) {\n            if (MAN[i].addr == _address) return i;\n        }\n        return 0;\n    }\n\n    function findDIS(address _address) private view returns (uint256) {\n        for (uint256 i = 1; i <= disCtr; i++) {\n            if (DIS[i].addr == _address) return i;\n        }\n        return 0;\n    }\n\n    function findRET(address _address) private view returns (uint256) {\n        for (uint256 i = 1; i <= retCtr; i++) {\n            if (RET[i].addr == _address) return i;\n        }\n        return 0;\n    }\n\n    function findCUST(address _address) private view returns (uint256) {\n        for (uint256 i = 1; i <= custCtr; i++) {\n            if (CUST[i].addr == _address) return i;\n        }\n        return 0;\n    }\n    function getRequiredRawMaterials(uint256 medicineId) public view returns (uint256[] memory) {\n        return medicines[medicineId].requiredRawMaterials;\n    }\n    function getOrderRMS(uint256 orderId) public view returns (uint256[] memory) {\n        return orders[orderId].RMSid;\n    }\n\n\n}\n\n",
  "sourcePath": "/Users/santhoshym/Desktop/Final Year project/contracts/PharmaChain.sol",
  "compiler": {
    "name": "solc",
    "version": "0.5.16+commit.9c3226ce.Emscripten.clang"
  },
  "schemaVersion": "3.4.16",
  "updatedAt": "2025-05-07T13:12:51.743Z",
  "networkType": "ethereum",
  "devdoc": {
    "methods": {}
  },
  "userdoc": {
    "methods": {}
  }
}